:10001000B707005083C7070013972700B7070020D2
:1000200093870701BA9703A307000283634005067D
:1000300063C6050613860500930505001305F0FF4A
:10004000630C060293061000637AB6006358C00082
:100050001316160093961600E36AB6FE1305000009
:1000600063E6C500B385C5403365D50093D6160059
:1000700013561600E39606FE678000009382000088
:10008000EFF05FFB13850500678002003305A04099
:1000900063D80500B305B0406FF0DFF9B305B04099
:1000A00093820000EFF01FF93305A0406780020043
:1000B0009382000063CA0500634C0500EFF09FF7D0
:1000C0001385050067800200B305B040E35805FEC4
:1000D0003305A040EFF01FF63305B0406780020003
:1000E00081CD7D160CC150C12324050023260500B7
:0C00F00014C958C9014582800545828072
:0A00FC00584508453305A7408280EF
:1001060015CD411122C42A841444484526C2AE8422
:100116004C4006C6B306D540054763EBD500A13F64
:100126001C4001473E95230095005C4485075CC44E
:10013600B240224492443A854101828005473A857D
:020146008280B5
:1001480015CD411122C42A845844084506C626C242
:100158008547630FE500AE844C40293F1C403E951F
:10016800834705002380F4001C4485071CC481478D
:10017800B240224492443E854101828085473E85B3
:02018800828073
:10018A00011122CC370400201305041313050503BB
:10019A0006CE853739C1130404135C4CB706002018
:1001AA00938597079387870703C7050003C6070048
:1001BA0013478700E30AC7FE9305F1001385061665
:1001CA00BD3F01ED584C3C5F130707108E0793F7AC
:1001DA008703BA970347F10098C3F2406244056166
:0201EA00828011
:1001EC00411126C2B704002093870413DC4F4AC088
:1001FC0006C622C403C4072593840413138904037D
:10020C001374F40FD84C9306072583C70600E30E2E
:10021C00F4FE93777400130707388E07BA978C4354
:0E022C004A85050493F5F50FC93D3D88E1BFF5
:10023A0041113705002071679307051306C6130796
:10024A000720D8C33727B700130707B0D8CB3747DB
:10025A003060D8CF41670D0798CF377773331307CC
:10026A00777098D73707700013070710B705002073
:10027A00D8D7130600020D479385051113050513F8
:0A028A0023A00702D8D36120A93F8A
:08029400411106C6CD3DFDBF7E
:02029C0001A0BF
:02029E0001A0BD
:0202A00001A0BB
:0202A20001A0B9
:0202A40001A0B7
:0202A60001A0B5
:0202A80001A0B3
:0202AA0001A0B1
:0202AC0001A0AF
:0202AE0001A0AD
:0202B00001A0AB
:0202B20001A0A9
:0202B40001A0A7
:0202B60001A0A5
:0202B80001A0A3
:0202BA0001A0A1
:0202BC0001A09F
:0202BE0001A09D
:0202C00001A09B
:0202C20001A099
:0202C40001A097
:0202C60001A095
:0202C80001A093
:0202CA0001A091
:0202CC0001A08F
:0202CE0001A08D
:0202D00001A08B
:0202D20001A089
:0202D40001A087
:0202D60001A085
:0202D80001A083
:0202DA0001A081
:0202DC0001A07F
:0202DE0001A07D
:0202E00001A07B
:0202E20001A079
:0202E40001A077
:0202E60001A075
:0202E80001A073
:0202EA0001A071
:0202EC0001A06F
:0202EE0001A06D
:0202F00001A06B
:0202F20001A069
:0202F40001A067
:0202F60001A065
:0202F80001A063
:0202FA0001A061
:0202FC0001A05F
:0202FE0001A05D
:0203000001A05A
:0203020001A058
:0203040001A056
:0203060001A054
:0203080001A052
:02030A0001A050
:02030C0001A04E
:02030E0001A04C
:0203100001A04A
:0203120001A048
:0203140001A046
:0203160001A044
:1003180001E52300000002905C4D184D011122CC2C
:1003280026CA4AC806CE98C35C4D185185442A840B
:10033800B8C718555C4D2E894C41B8D35C4D32C6B0
:1003480084C74849E531584C9307F5FF0581A20752
:1003580079153E9508CB54505C54584C3246D58F8D
:100368003CC381460147CA8513050403B533631BA3
:100378009500230004000545F2406244D2444249F6
:1003880005618280930750052300F4000145EDB70D
:0A03980037F100201301013CD5BD30
:0A03A20037E100201301017CCDBDFE
:0A03AC0037E10020130101BCEDB59C
:0A03B60037D10020130101FCCDB582
:0A03C00037D10020130101FCE9BD54
:0A03CA0037D10020130101FCC9BD6A
:0A03D40037D10020130101FCE9B548
:0A03DE0037D10020130101FCC9B55E
:0A03E80037D10020130101FC6DBDA8
:0A03F20037D10020130101FC4DBDBE
:0A03FC0037D10020130101FC6DB59C
:0A04060037D10020130101FC4DB5B1
:0A04100037D10020130101FC69BD83
:0A041A0037D10020130101FC49BD99
:0A04240037D10020130101FC69B577
:0A042E0037D10020130101FC49B58D
:0A04380037D10020130101FCADBD17
:0A04420037D10020130101FC8DBD2D
:0A044C0037D10020130101FCADB50B
:0A04560037D10020130101FC8DB521
:0A04600037D10020130101FCA9BDF3
:0A046A0037D10020130101FC89BD09
:0A04740037D10020130101FCA9B5E7
:0A047E0037D10020130101FC89B5FD
:0A04880037D10020130101FC2DBD47
:0A04920037D10020130101FC0DBD5D
:0A049C0037D10020130101FC2DB53B
:0A04A60037D10020130101FC0DB551
:0A04B00037D10020130101FC29BD23
:0A04BA0037D10020130101FC09BD39
:0A04C40037D10020130101FC29B517
:0A04CE0037D10020130101FC09B52D
:0A04D80037D10020130101FCEDBB39
:0A04E20037D10020130101FCCDBB4F
:0A04EC0037D10020130101FCEDB32D
:0A04F60037D10020130101FCCDB343
:0A05000037D10020130101FCE9BB14
:0A050A0037D10020130101FCC9BB2A
:0A05140037D10020130101FCE9B308
:0A051E0037D10020130101FCC9B31E
:0A05280037D10020130101FC6DBB68
:0A05320037D10020130101FC4DBB7E
:0A053C0037D10020130101FC6DB35C
:0A05460037D10020130101FC4DB372
:0A05500037D10020130101FC69BB44
:0A055A0037D10020130101FC49BB5A
:0A05640037D10020130101FC69B338
:0A056E0037D10020130101FC49B34E
:0A05780037D10020130101FCADBBD8
:0A05820037D10020130101FC8DBBEE
:0A058C0037D10020130101FCADB3CC
:0A05960037D10020130101FC8DB3E2
:0A05A00037D10020130101FCA9BBB4
:0A05AA0037D10020130101FC89BBCA
:0A05B40037D10020130101FCA9B3A8
:0A05BE0037D10020130101FC89B3BE
:0A05C80037D10020130101FC2DBB08
:0A05D20037D10020130101FC0DBB1E
:0A05DC0037D10020130101FC2DB3FC
:0A05E60037D10020130101FC0DB312
:0A05F00037D10020130101FC29BBE4
:0A05FA0037D10020130101FC09BBFA
:0A06040037D10020130101FC29B3D7
:10060E0037010120130101FEB70701501307000443
:10061E002380E700B7072000370705509386370081
:10062E002324D710938677002324D7109386F700C0
:10063E002324D7109387F7102324F710B7070250FF
:10064E0037F7FFF023A4070023A8070023AC070009
:10065E0098D798DB98DFB8C7B8CBB8CFB8D7B8DB88
:10066E00B8DF23A4E70823A8E70823ACE70823A4F0
:10067E00E70A23A8E70A23ACE70A23A4E70C23A87A
:10068E00E70C23ACE70C23A4E70E23A8E70E23AC5C
:10069E00E70E23A4E71023A8E71023ACE71023A44A
:1006AE00E71223A8E71223ACE71223A4E71423A82A
:1006BE00E71423ACE71423A4E71623A8E71623AC0C
:1006CE00E71623A4E71823A8E71823ACE71823A4FA
:1006DE00E71A23A8E71A23ACE71A23A4E71C23A8DA
:1006EE00E71C23ACE71C23A4E71E23A8E71E23ACBC
:1006FE00E71E98D3B8C3B8D323A0E70823A0E70A10
:10070E0023A0E70C23A0E70E23A0E71023A0E712F7
:10071E0023A0E71423A0E71623A0E71823A0E71AC7
:10072E0023A0E71C23A0E71E23A00700370101200A
:06073E00130101FCE5BC03
:020000042000DA
:100010000E06000098030000A2030000AC030000DD
:10002000B6030000C0030000CA030000D4030000B0
:10003000DE030000E8030000F2030000FC03000000
:1000400006040000100400001A040000240400004C
:100050002E04000038040000420400004C0400009C
:1000600056040000600400006A04000074040000EC
:100070007E04000088040000920400009C0400003C
:10008000A6040000B0040000BA040000C40400008C
:10009000CE040000D8040000E2040000EC040000DC
:1000A000F6040000000500000A0500001405000029
:1000B0001E05000028050000320500003C05000078
:1000C00046050000500500005A05000064050000C8
:1000D0006E05000078050000820500008C05000018
:1000E00096050000A0050000AA050000B405000068
:1000F000BE050000C8050000D2050000DC050000B8
:10010000E6050000F0050000FA0500000406000006
:0400000300000010E9
:00000001FF
